{
  "_format": "hh-sol-artifact-1",
  "contractName": "EVSmartChargingDapp",
  "sourceName": "contracts/evsmartcharging.sol",
  "abi": [
    {
      "anonymous": false,
      "inputs": [
        {
          "indexed": true,
          "internalType": "uint16",
          "name": "stationId",
          "type": "uint16"
        }
      ],
      "name": "NewStation",
      "type": "event"
    },
    {
      "inputs": [
        {
          "internalType": "uint16",
          "name": "_stationId",
          "type": "uint16"
        },
        {
          "internalType": "uint16",
          "name": "inTime",
          "type": "uint16"
        },
        {
          "internalType": "uint16",
          "name": "outTime",
          "type": "uint16"
        }
      ],
      "name": "BookSlot",
      "outputs": [],
      "stateMutability": "payable",
      "type": "function"
    },
    {
      "inputs": [
        {
          "internalType": "string",
          "name": "_name",
          "type": "string"
        },
        {
          "internalType": "uint8",
          "name": "_wattage",
          "type": "uint8"
        },
        {
          "internalType": "string",
          "name": "_description",
          "type": "string"
        },
        {
          "internalType": "string",
          "name": "_location",
          "type": "string"
        },
        {
          "internalType": "uint16",
          "name": "_price",
          "type": "uint16"
        }
      ],
      "name": "ListNewStation",
      "outputs": [],
      "stateMutability": "nonpayable",
      "type": "function"
    },
    {
      "inputs": [
        {
          "internalType": "uint16",
          "name": "",
          "type": "uint16"
        }
      ],
      "name": "addresses",
      "outputs": [
        {
          "internalType": "address",
          "name": "",
          "type": "address"
        }
      ],
      "stateMutability": "view",
      "type": "function"
    },
    {
      "inputs": [
        {
          "internalType": "address",
          "name": "",
          "type": "address"
        }
      ],
      "name": "addressesToInt",
      "outputs": [
        {
          "internalType": "uint16",
          "name": "",
          "type": "uint16"
        }
      ],
      "stateMutability": "view",
      "type": "function"
    },
    {
      "inputs": [
        {
          "internalType": "address",
          "name": "",
          "type": "address"
        },
        {
          "internalType": "uint256",
          "name": "",
          "type": "uint256"
        }
      ],
      "name": "bookings",
      "outputs": [
        {
          "internalType": "uint256",
          "name": "timestamp",
          "type": "uint256"
        },
        {
          "internalType": "uint16",
          "name": "inTime",
          "type": "uint16"
        },
        {
          "internalType": "uint16",
          "name": "outTime",
          "type": "uint16"
        },
        {
          "internalType": "address",
          "name": "user",
          "type": "address"
        }
      ],
      "stateMutability": "view",
      "type": "function"
    },
    {
      "inputs": [
        {
          "internalType": "uint16",
          "name": "_stationId",
          "type": "uint16"
        }
      ],
      "name": "deleteStation",
      "outputs": [],
      "stateMutability": "nonpayable",
      "type": "function"
    },
    {
      "inputs": [
        {
          "internalType": "address",
          "name": "_address",
          "type": "address"
        }
      ],
      "name": "getBookings",
      "outputs": [
        {
          "components": [
            {
              "internalType": "uint256",
              "name": "timestamp",
              "type": "uint256"
            },
            {
              "internalType": "uint16",
              "name": "inTime",
              "type": "uint16"
            },
            {
              "internalType": "uint16",
              "name": "outTime",
              "type": "uint16"
            },
            {
              "internalType": "address",
              "name": "user",
              "type": "address"
            }
          ],
          "internalType": "struct EVSmartChargingDapp.Booking[]",
          "name": "",
          "type": "tuple[]"
        }
      ],
      "stateMutability": "view",
      "type": "function"
    },
    {
      "inputs": [
        {
          "internalType": "uint16",
          "name": "_stationId",
          "type": "uint16"
        }
      ],
      "name": "getInTimings",
      "outputs": [
        {
          "internalType": "uint16[]",
          "name": "",
          "type": "uint16[]"
        }
      ],
      "stateMutability": "view",
      "type": "function"
    },
    {
      "inputs": [],
      "name": "getLocations",
      "outputs": [
        {
          "internalType": "string[]",
          "name": "",
          "type": "string[]"
        }
      ],
      "stateMutability": "view",
      "type": "function"
    },
    {
      "inputs": [
        {
          "internalType": "uint16",
          "name": "_stationId",
          "type": "uint16"
        }
      ],
      "name": "getOutTimings",
      "outputs": [
        {
          "internalType": "uint16[]",
          "name": "",
          "type": "uint16[]"
        }
      ],
      "stateMutability": "view",
      "type": "function"
    },
    {
      "inputs": [
        {
          "internalType": "address",
          "name": "add",
          "type": "address"
        }
      ],
      "name": "getStation",
      "outputs": [
        {
          "components": [
            {
              "internalType": "string",
              "name": "name",
              "type": "string"
            },
            {
              "internalType": "uint16",
              "name": "id",
              "type": "uint16"
            },
            {
              "internalType": "uint8",
              "name": "wattage",
              "type": "uint8"
            },
            {
              "internalType": "string",
              "name": "description",
              "type": "string"
            },
            {
              "internalType": "string",
              "name": "location",
              "type": "string"
            },
            {
              "internalType": "bool",
              "name": "isActive",
              "type": "bool"
            },
            {
              "internalType": "uint16",
              "name": "pricePerunit",
              "type": "uint16"
            },
            {
              "internalType": "address payable",
              "name": "owner",
              "type": "address"
            },
            {
              "internalType": "bool[]",
              "name": "isBooked",
              "type": "bool[]"
            },
            {
              "internalType": "uint16[]",
              "name": "inTimes",
              "type": "uint16[]"
            },
            {
              "internalType": "uint16[]",
              "name": "outTimes",
              "type": "uint16[]"
            }
          ],
          "internalType": "struct EVSmartChargingDapp.Station",
          "name": "",
          "type": "tuple"
        }
      ],
      "stateMutability": "view",
      "type": "function"
    },
    {
      "inputs": [
        {
          "internalType": "string",
          "name": "_location",
          "type": "string"
        }
      ],
      "name": "getStation",
      "outputs": [
        {
          "components": [
            {
              "internalType": "string",
              "name": "name",
              "type": "string"
            },
            {
              "internalType": "uint16",
              "name": "id",
              "type": "uint16"
            },
            {
              "internalType": "uint8",
              "name": "wattage",
              "type": "uint8"
            },
            {
              "internalType": "string",
              "name": "description",
              "type": "string"
            },
            {
              "internalType": "string",
              "name": "location",
              "type": "string"
            },
            {
              "internalType": "bool",
              "name": "isActive",
              "type": "bool"
            },
            {
              "internalType": "uint16",
              "name": "pricePerunit",
              "type": "uint16"
            },
            {
              "internalType": "address payable",
              "name": "owner",
              "type": "address"
            },
            {
              "internalType": "bool[]",
              "name": "isBooked",
              "type": "bool[]"
            },
            {
              "internalType": "uint16[]",
              "name": "inTimes",
              "type": "uint16[]"
            },
            {
              "internalType": "uint16[]",
              "name": "outTimes",
              "type": "uint16[]"
            }
          ],
          "internalType": "struct EVSmartChargingDapp.Station",
          "name": "",
          "type": "tuple"
        }
      ],
      "stateMutability": "view",
      "type": "function"
    },
    {
      "inputs": [
        {
          "internalType": "string",
          "name": "",
          "type": "string"
        }
      ],
      "name": "locationsToStation",
      "outputs": [
        {
          "internalType": "string",
          "name": "name",
          "type": "string"
        },
        {
          "internalType": "uint16",
          "name": "id",
          "type": "uint16"
        },
        {
          "internalType": "uint8",
          "name": "wattage",
          "type": "uint8"
        },
        {
          "internalType": "string",
          "name": "description",
          "type": "string"
        },
        {
          "internalType": "string",
          "name": "location",
          "type": "string"
        },
        {
          "internalType": "bool",
          "name": "isActive",
          "type": "bool"
        },
        {
          "internalType": "uint16",
          "name": "pricePerunit",
          "type": "uint16"
        },
        {
          "internalType": "address payable",
          "name": "owner",
          "type": "address"
        }
      ],
      "stateMutability": "view",
      "type": "function"
    },
    {
      "inputs": [
        {
          "internalType": "uint16",
          "name": "_stationId",
          "type": "uint16"
        }
      ],
      "name": "setStationAsActive",
      "outputs": [],
      "stateMutability": "nonpayable",
      "type": "function"
    },
    {
      "inputs": [
        {
          "internalType": "uint16",
          "name": "_stationId",
          "type": "uint16"
        }
      ],
      "name": "setStationAsInactive",
      "outputs": [],
      "stateMutability": "nonpayable",
      "type": "function"
    },
    {
      "inputs": [],
      "name": "stationId",
      "outputs": [
        {
          "internalType": "uint16",
          "name": "",
          "type": "uint16"
        }
      ],
      "stateMutability": "view",
      "type": "function"
    },
    {
      "inputs": [
        {
          "internalType": "address",
          "name": "",
          "type": "address"
        }
      ],
      "name": "stations",
      "outputs": [
        {
          "internalType": "string",
          "name": "name",
          "type": "string"
        },
        {
          "internalType": "uint16",
          "name": "id",
          "type": "uint16"
        },
        {
          "internalType": "uint8",
          "name": "wattage",
          "type": "uint8"
        },
        {
          "internalType": "string",
          "name": "description",
          "type": "string"
        },
        {
          "internalType": "string",
          "name": "location",
          "type": "string"
        },
        {
          "internalType": "bool",
          "name": "isActive",
          "type": "bool"
        },
        {
          "internalType": "uint16",
          "name": "pricePerunit",
          "type": "uint16"
        },
        {
          "internalType": "address payable",
          "name": "owner",
          "type": "address"
        }
      ],
      "stateMutability": "view",
      "type": "function"
    }
  ],
  "bytecode": "0x608060405260016000806101000a81548161ffff021916908361ffff16021790555034801561002d57600080fd5b50613fce8061003d6000396000f3fe6080604052600436106100fe5760003560e01c80639c794e2a11610095578063c6a8a6d611610064578063c6a8a6d61461037c578063c7fb4f12146103a5578063fa45f7ae146103e9578063fe9ba20a14610426578063ffae7b7214610463576100fe565b80639c794e2a146102ab578063ab63616f146102eb578063adee2c6214610316578063c5a983d814610353576100fe565b80636014cc7b116100d15780636014cc7b146101d157806368cad08a1461020e578063707aa06d1461022a57806380b09e651461026e576100fe565b80632130f5241461010357806322ea55f61461012c578063500c43371461016957806356b27a3814610194575b600080fd5b34801561010f57600080fd5b5061012a60048036038101906101259190613304565b61048c565b005b34801561013857600080fd5b50610153600480360381019061014e919061319f565b610630565b6040516101609190613a23565b60405180910390f35b34801561017557600080fd5b5061017e61076e565b60405161018b9190613b9c565b60405180910390f35b3480156101a057600080fd5b506101bb60048036038101906101b69190613304565b610780565b6040516101c89190613a45565b60405180910390f35b3480156101dd57600080fd5b506101f860048036038101906101f39190613304565b61087d565b6040516102059190613a45565b60405180910390f35b6102286004803603810190610223919061332d565b61097a565b005b34801561023657600080fd5b50610251600480360381019061024c9190613204565b610f1c565b604051610265989796959493929190613a67565b60405180910390f35b34801561027a57600080fd5b506102956004803603810190610290919061319f565b611168565b6040516102a29190613b9c565b60405180910390f35b3480156102b757600080fd5b506102d260048036038101906102cd91906131c8565b611189565b6040516102e29493929190613bb7565b60405180910390f35b3480156102f757600080fd5b50610300611212565b60405161030d9190613a01565b60405180910390f35b34801561032257600080fd5b5061033d6004803603810190610338919061319f565b6112eb565b60405161034a9190613b7a565b60405180910390f35b34801561035f57600080fd5b5061037a60048036038101906103759190613304565b611746565b005b34801561038857600080fd5b506103a3600480360381019061039e9190613245565b6118ea565b005b3480156103b157600080fd5b506103cc60048036038101906103c7919061319f565b61202f565b6040516103e0989796959493929190613a67565b60405180910390f35b3480156103f557600080fd5b50610410600480360381019061040b9190613304565b612265565b60405161041d91906139e6565b60405180910390f35b34801561043257600080fd5b5061044d60048036038101906104489190613204565b612298565b60405161045a9190613b7a565b60405180910390f35b34801561046f57600080fd5b5061048a60048036038101906104859190613304565b6126d2565b005b3373ffffffffffffffffffffffffffffffffffffffff1660026000600360008561ffff1661ffff16815260200190815260200160002060009054906101000a900473ffffffffffffffffffffffffffffffffffffffff1673ffffffffffffffffffffffffffffffffffffffff1673ffffffffffffffffffffffffffffffffffffffff16815260200190815260200160002060040160039054906101000a900473ffffffffffffffffffffffffffffffffffffffff1673ffffffffffffffffffffffffffffffffffffffff1614610597576040517f08c379a000000000000000000000000000000000000000000000000000000000815260040161058e90613b1a565b60405180910390fd5b600060026000600360008561ffff1661ffff16815260200190815260200160002060009054906101000a900473ffffffffffffffffffffffffffffffffffffffff1673ffffffffffffffffffffffffffffffffffffffff1673ffffffffffffffffffffffffffffffffffffffff16815260200190815260200160002060040160006101000a81548160ff02191690831515021790555050565b6060600660008373ffffffffffffffffffffffffffffffffffffffff1673ffffffffffffffffffffffffffffffffffffffff168152602001908152602001600020805480602002602001604051908101604052809291908181526020016000905b828210156107635783829060005260206000209060020201604051806080016040529081600082015481526020016001820160009054906101000a900461ffff1661ffff1661ffff1681526020016001820160029054906101000a900461ffff1661ffff1661ffff1681526020016001820160049054906101000a900473ffffffffffffffffffffffffffffffffffffffff1673ffffffffffffffffffffffffffffffffffffffff1673ffffffffffffffffffffffffffffffffffffffff168152505081526020019060010190610691565b505050509050919050565b60008054906101000a900461ffff1681565b606060026000600360008561ffff1661ffff16815260200190815260200160002060009054906101000a900473ffffffffffffffffffffffffffffffffffffffff1673ffffffffffffffffffffffffffffffffffffffff1673ffffffffffffffffffffffffffffffffffffffff16815260200190815260200160002060070180548060200260200160405190810160405280929190818152602001828054801561087157602002820191906000526020600020906000905b82829054906101000a900461ffff1661ffff16815260200190600201906020826001010492830192600103820291508084116108385790505b50505050509050919050565b606060026000600360008561ffff1661ffff16815260200190815260200160002060009054906101000a900473ffffffffffffffffffffffffffffffffffffffff1673ffffffffffffffffffffffffffffffffffffffff1673ffffffffffffffffffffffffffffffffffffffff16815260200190815260200160002060060180548060200260200160405190810160405280929190818152602001828054801561096e57602002820191906000526020600020906000905b82829054906101000a900461ffff1661ffff16815260200190600201906020826001010492830192600103820291508084116109355790505b50505050509050919050565b600060026000600360008761ffff1661ffff16815260200190815260200160002060009054906101000a900473ffffffffffffffffffffffffffffffffffffffff1673ffffffffffffffffffffffffffffffffffffffff1673ffffffffffffffffffffffffffffffffffffffff16815260200190815260200160002060405180610160016040529081600082018054610a1290613e41565b80601f0160208091040260200160405190810160405280929190818152602001828054610a3e90613e41565b8015610a8b5780601f10610a6057610100808354040283529160200191610a8b565b820191906000526020600020905b815481529060010190602001808311610a6e57829003601f168201915b505050505081526020016001820160009054906101000a900461ffff1661ffff1661ffff1681526020016001820160029054906101000a900460ff1660ff1660ff168152602001600282018054610ae190613e41565b80601f0160208091040260200160405190810160405280929190818152602001828054610b0d90613e41565b8015610b5a5780601f10610b2f57610100808354040283529160200191610b5a565b820191906000526020600020905b815481529060010190602001808311610b3d57829003601f168201915b50505050508152602001600382018054610b7390613e41565b80601f0160208091040260200160405190810160405280929190818152602001828054610b9f90613e41565b8015610bec5780601f10610bc157610100808354040283529160200191610bec565b820191906000526020600020905b815481529060010190602001808311610bcf57829003601f168201915b505050505081526020016004820160009054906101000a900460ff161515151581526020016004820160019054906101000a900461ffff1661ffff1661ffff1681526020016004820160039054906101000a900473ffffffffffffffffffffffffffffffffffffffff1673ffffffffffffffffffffffffffffffffffffffff1673ffffffffffffffffffffffffffffffffffffffff16815260200160058201805480602002602001604051908101604052809291908181526020018280548015610cfa57602002820191906000526020600020906000905b82829054906101000a900460ff16151581526020019060010190602082600001049283019260010382029150808411610cc45790505b5050505050815260200160068201805480602002602001604051908101604052809291908181526020018280548015610d7a57602002820191906000526020600020906000905b82829054906101000a900461ffff1661ffff1681526020019060020190602082600101049283019260010382029150808411610d415790505b5050505050815260200160078201805480602002602001604051908101604052809291908181526020018280548015610dfa57602002820191906000526020600020906000905b82829054906101000a900461ffff1661ffff1681526020019060020190602082600101049283019260010382029150808411610dc15790505b5050505050815250509050600115158160a00151151514610e50576040517f08c379a0000000000000000000000000000000000000000000000000000000008152600401610e4790613afa565b60405180910390fd5b60008390505b8261ffff168161ffff161015610f0a57600115158261010001518261ffff1681518110610eac577f4e487b7100000000000000000000000000000000000000000000000000000000600052603260045260246000fd5b602002602001015115151415610ef7576040517f08c379a0000000000000000000000000000000000000000000000000000000008152600401610eee90613b3a565b60405180910390fd5b8080610f0290613e73565b915050610e56565b50610f168484846129c5565b50505050565b600581805160208101820180518482526020830160208501208183528095505050505050600091509050806000018054610f5590613e41565b80601f0160208091040260200160405190810160405280929190818152602001828054610f8190613e41565b8015610fce5780601f10610fa357610100808354040283529160200191610fce565b820191906000526020600020905b815481529060010190602001808311610fb157829003601f168201915b5050505050908060010160009054906101000a900461ffff16908060010160029054906101000a900460ff169080600201805461100a90613e41565b80601f016020809104026020016040519081016040528092919081815260200182805461103690613e41565b80156110835780601f1061105857610100808354040283529160200191611083565b820191906000526020600020905b81548152906001019060200180831161106657829003601f168201915b50505050509080600301805461109890613e41565b80601f01602080910402602001604051908101604052809291908181526020018280546110c490613e41565b80156111115780601f106110e657610100808354040283529160200191611111565b820191906000526020600020905b8154815290600101906020018083116110f457829003601f168201915b5050505050908060040160009054906101000a900460ff16908060040160019054906101000a900461ffff16908060040160039054906101000a900473ffffffffffffffffffffffffffffffffffffffff16905088565b60046020528060005260406000206000915054906101000a900461ffff1681565b600660205281600052604060002081815481106111a557600080fd5b9060005260206000209060020201600091509150508060000154908060010160009054906101000a900461ffff16908060010160029054906101000a900461ffff16908060010160049054906101000a900473ffffffffffffffffffffffffffffffffffffffff16905084565b60606001805480602002602001604051908101604052809291908181526020016000905b828210156112e257838290600052602060002001805461125590613e41565b80601f016020809104026020016040519081016040528092919081815260200182805461128190613e41565b80156112ce5780601f106112a3576101008083540402835291602001916112ce565b820191906000526020600020905b8154815290600101906020018083116112b157829003601f168201915b505050505081526020019060010190611236565b50505050905090565b6112f3612de3565b600260008373ffffffffffffffffffffffffffffffffffffffff1673ffffffffffffffffffffffffffffffffffffffff1681526020019081526020016000206040518061016001604052908160008201805461134e90613e41565b80601f016020809104026020016040519081016040528092919081815260200182805461137a90613e41565b80156113c75780601f1061139c576101008083540402835291602001916113c7565b820191906000526020600020905b8154815290600101906020018083116113aa57829003601f168201915b505050505081526020016001820160009054906101000a900461ffff1661ffff1661ffff1681526020016001820160029054906101000a900460ff1660ff1660ff16815260200160028201805461141d90613e41565b80601f016020809104026020016040519081016040528092919081815260200182805461144990613e41565b80156114965780601f1061146b57610100808354040283529160200191611496565b820191906000526020600020905b81548152906001019060200180831161147957829003601f168201915b505050505081526020016003820180546114af90613e41565b80601f01602080910402602001604051908101604052809291908181526020018280546114db90613e41565b80156115285780601f106114fd57610100808354040283529160200191611528565b820191906000526020600020905b81548152906001019060200180831161150b57829003601f168201915b505050505081526020016004820160009054906101000a900460ff161515151581526020016004820160019054906101000a900461ffff1661ffff1661ffff1681526020016004820160039054906101000a900473ffffffffffffffffffffffffffffffffffffffff1673ffffffffffffffffffffffffffffffffffffffff1673ffffffffffffffffffffffffffffffffffffffff1681526020016005820180548060200260200160405190810160405280929190818152602001828054801561163657602002820191906000526020600020906000905b82829054906101000a900460ff161515815260200190600101906020826000010492830192600103820291508084116116005790505b50505050508152602001600682018054806020026020016040519081016040528092919081815260200182805480156116b657602002820191906000526020600020906000905b82829054906101000a900461ffff1661ffff168152602001906002019060208260010104928301926001038202915080841161167d5790505b505050505081526020016007820180548060200260200160405190810160405280929190818152602001828054801561173657602002820191906000526020600020906000905b82829054906101000a900461ffff1661ffff16815260200190600201906020826001010492830192600103820291508084116116fd5790505b5050505050815250509050919050565b3373ffffffffffffffffffffffffffffffffffffffff1660026000600360008561ffff1661ffff16815260200190815260200160002060009054906101000a900473ffffffffffffffffffffffffffffffffffffffff1673ffffffffffffffffffffffffffffffffffffffff1673ffffffffffffffffffffffffffffffffffffffff16815260200190815260200160002060040160039054906101000a900473ffffffffffffffffffffffffffffffffffffffff1673ffffffffffffffffffffffffffffffffffffffff1614611851576040517f08c379a000000000000000000000000000000000000000000000000000000000815260040161184890613b1a565b60405180910390fd5b600160026000600360008561ffff1661ffff16815260200190815260200160002060009054906101000a900473ffffffffffffffffffffffffffffffffffffffff1673ffffffffffffffffffffffffffffffffffffffff1673ffffffffffffffffffffffffffffffffffffffff16815260200190815260200160002060040160006101000a81548160ff02191690831515021790555050565b600060405180610160016040528087815260200160008054906101000a900461ffff1661ffff1681526020018660ff1681526020018581526020018481526020016001151581526020018361ffff1681526020013373ffffffffffffffffffffffffffffffffffffffff1681526020016105a067ffffffffffffffff81111561199c577f4e487b7100000000000000000000000000000000000000000000000000000000600052604160045260246000fd5b6040519080825280602002602001820160405280156119ca5781602001602082028036833780820191505090505b508152602001600067ffffffffffffffff811115611a11577f4e487b7100000000000000000000000000000000000000000000000000000000600052604160045260246000fd5b604051908082528060200260200182016040528015611a3f5781602001602082028036833780820191505090505b508152602001600067ffffffffffffffff811115611a86577f4e487b7100000000000000000000000000000000000000000000000000000000600052604160045260246000fd5b604051908082528060200260200182016040528015611ab45781602001602082028036833780820191505090505b5081525090506000600460003373ffffffffffffffffffffffffffffffffffffffff1673ffffffffffffffffffffffffffffffffffffffff16815260200190815260200160002060009054906101000a900461ffff1661ffff1614611b4e576040517f08c379a0000000000000000000000000000000000000000000000000000000008152600401611b4590613b5a565b60405180910390fd5b80600260003373ffffffffffffffffffffffffffffffffffffffff1673ffffffffffffffffffffffffffffffffffffffff1681526020019081526020016000206000820151816000019080519060200190611baa929190612e60565b5060208201518160010160006101000a81548161ffff021916908361ffff16021790555060408201518160010160026101000a81548160ff021916908360ff1602179055506060820151816002019080519060200190611c0b929190612e60565b506080820151816003019080519060200190611c28929190612e60565b5060a08201518160040160006101000a81548160ff02191690831515021790555060c08201518160040160016101000a81548161ffff021916908361ffff16021790555060e08201518160040160036101000a81548173ffffffffffffffffffffffffffffffffffffffff021916908373ffffffffffffffffffffffffffffffffffffffff160217905550610100820151816005019080519060200190611cd0929190612ee6565b50610120820151816006019080519060200190611cee929190612f8c565b50610140820151816007019080519060200190611d0c929190612f8c565b5090505033600360008060009054906101000a900461ffff1661ffff1661ffff16815260200190815260200160002060006101000a81548173ffffffffffffffffffffffffffffffffffffffff021916908373ffffffffffffffffffffffffffffffffffffffff16021790555060008054906101000a900461ffff16600460003373ffffffffffffffffffffffffffffffffffffffff1673ffffffffffffffffffffffffffffffffffffffff16815260200190815260200160002060006101000a81548161ffff021916908361ffff16021790555080600584604051611df291906139cf565b90815260200160405180910390206000820151816000019080519060200190611e1c929190612e60565b5060208201518160010160006101000a81548161ffff021916908361ffff16021790555060408201518160010160026101000a81548160ff021916908360ff1602179055506060820151816002019080519060200190611e7d929190612e60565b506080820151816003019080519060200190611e9a929190612e60565b5060a08201518160040160006101000a81548160ff02191690831515021790555060c08201518160040160016101000a81548161ffff021916908361ffff16021790555060e08201518160040160036101000a81548173ffffffffffffffffffffffffffffffffffffffff021916908373ffffffffffffffffffffffffffffffffffffffff160217905550610100820151816005019080519060200190611f42929190612ee6565b50610120820151816006019080519060200190611f60929190612f8c565b50610140820151816007019080519060200190611f7e929190612f8c565b50905050600183908060018154018082558091505060019003906000526020600020016000909190919091509080519060200190611fbd929190612e60565b5060008081819054906101000a900461ffff1680929190611fdd90613e73565b91906101000a81548161ffff021916908361ffff16021790555061ffff167f5b3e6308155d0f5f07e1e07c95e9f521de4190ea26e9699988544d0cc9929bf760405160405180910390a2505050505050565b600260205280600052604060002060009150905080600001805461205290613e41565b80601f016020809104026020016040519081016040528092919081815260200182805461207e90613e41565b80156120cb5780601f106120a0576101008083540402835291602001916120cb565b820191906000526020600020905b8154815290600101906020018083116120ae57829003601f168201915b5050505050908060010160009054906101000a900461ffff16908060010160029054906101000a900460ff169080600201805461210790613e41565b80601f016020809104026020016040519081016040528092919081815260200182805461213390613e41565b80156121805780601f1061215557610100808354040283529160200191612180565b820191906000526020600020905b81548152906001019060200180831161216357829003601f168201915b50505050509080600301805461219590613e41565b80601f01602080910402602001604051908101604052809291908181526020018280546121c190613e41565b801561220e5780601f106121e35761010080835404028352916020019161220e565b820191906000526020600020905b8154815290600101906020018083116121f157829003601f168201915b5050505050908060040160009054906101000a900460ff16908060040160019054906101000a900461ffff16908060040160039054906101000a900473ffffffffffffffffffffffffffffffffffffffff16905088565b60036020528060005260406000206000915054906101000a900473ffffffffffffffffffffffffffffffffffffffff1681565b6122a0612de3565b6005826040516122b091906139cf565b9081526020016040518091039020604051806101600160405290816000820180546122da90613e41565b80601f016020809104026020016040519081016040528092919081815260200182805461230690613e41565b80156123535780601f1061232857610100808354040283529160200191612353565b820191906000526020600020905b81548152906001019060200180831161233657829003601f168201915b505050505081526020016001820160009054906101000a900461ffff1661ffff1661ffff1681526020016001820160029054906101000a900460ff1660ff1660ff1681526020016002820180546123a990613e41565b80601f01602080910402602001604051908101604052809291908181526020018280546123d590613e41565b80156124225780601f106123f757610100808354040283529160200191612422565b820191906000526020600020905b81548152906001019060200180831161240557829003601f168201915b5050505050815260200160038201805461243b90613e41565b80601f016020809104026020016040519081016040528092919081815260200182805461246790613e41565b80156124b45780601f10612489576101008083540402835291602001916124b4565b820191906000526020600020905b81548152906001019060200180831161249757829003601f168201915b505050505081526020016004820160009054906101000a900460ff161515151581526020016004820160019054906101000a900461ffff1661ffff1661ffff1681526020016004820160039054906101000a900473ffffffffffffffffffffffffffffffffffffffff1673ffffffffffffffffffffffffffffffffffffffff1673ffffffffffffffffffffffffffffffffffffffff168152602001600582018054806020026020016040519081016040528092919081815260200182805480156125c257602002820191906000526020600020906000905b82829054906101000a900460ff1615158152602001906001019060208260000104928301926001038202915080841161258c5790505b505050505081526020016006820180548060200260200160405190810160405280929190818152602001828054801561264257602002820191906000526020600020906000905b82829054906101000a900461ffff1661ffff16815260200190600201906020826001010492830192600103820291508084116126095790505b50505050508152602001600782018054806020026020016040519081016040528092919081815260200182805480156126c257602002820191906000526020600020906000905b82829054906101000a900461ffff1661ffff16815260200190600201906020826001010492830192600103820291508084116126895790505b5050505050815250509050919050565b6000151560026000600360008561ffff1661ffff16815260200190815260200160002060009054906101000a900473ffffffffffffffffffffffffffffffffffffffff1673ffffffffffffffffffffffffffffffffffffffff1673ffffffffffffffffffffffffffffffffffffffff16815260200190815260200160002060040160009054906101000a900460ff161515146127a3576040517f08c379a000000000000000000000000000000000000000000000000000000000815260040161279a90613afa565b60405180910390fd5b60026000600360008461ffff1661ffff16815260200190815260200160002060009054906101000a900473ffffffffffffffffffffffffffffffffffffffff1673ffffffffffffffffffffffffffffffffffffffff1673ffffffffffffffffffffffffffffffffffffffff1681526020019081526020016000206000808201600061282e9190613036565b6001820160006101000a81549061ffff02191690556001820160026101000a81549060ff02191690556002820160006128679190613036565b6003820160006128779190613036565b6004820160006101000a81549060ff02191690556004820160016101000a81549061ffff02191690556004820160036101000a81549073ffffffffffffffffffffffffffffffffffffffff02191690556005820160006128d79190613076565b6006820160006128e7919061309e565b6007820160006128f7919061309e565b505060046000600360008461ffff1661ffff16815260200190815260200160002060009054906101000a900473ffffffffffffffffffffffffffffffffffffffff1673ffffffffffffffffffffffffffffffffffffffff1673ffffffffffffffffffffffffffffffffffffffff16815260200190815260200160002060006101000a81549061ffff0219169055600360008261ffff1661ffff16815260200190815260200160002060006101000a81549073ffffffffffffffffffffffffffffffffffffffff021916905550565b600060405180608001604052804281526020018461ffff1681526020018361ffff1681526020013373ffffffffffffffffffffffffffffffffffffffff16815250905060066000600360008761ffff1661ffff16815260200190815260200160002060009054906101000a900473ffffffffffffffffffffffffffffffffffffffff1673ffffffffffffffffffffffffffffffffffffffff1673ffffffffffffffffffffffffffffffffffffffff1681526020019081526020016000208190806001815401808255809150506001900390600052602060002090600202016000909190919091506000820151816000015560208201518160010160006101000a81548161ffff021916908361ffff16021790555060408201518160010160026101000a81548161ffff021916908361ffff16021790555060608201518160010160046101000a81548173ffffffffffffffffffffffffffffffffffffffff021916908373ffffffffffffffffffffffffffffffffffffffff160217905550505060008390505b8261ffff168161ffff161015612c5257600160026000600360008961ffff1661ffff16815260200190815260200160002060009054906101000a900473ffffffffffffffffffffffffffffffffffffffff1673ffffffffffffffffffffffffffffffffffffffff1673ffffffffffffffffffffffffffffffffffffffff1681526020019081526020016000206005018261ffff1681548110612c16577f4e487b7100000000000000000000000000000000000000000000000000000000600052603260045260246000fd5b90600052602060002090602091828204019190066101000a81548160ff0219169083151502179055508080612c4a90613e73565b915050612b4b565b5060026000600360008761ffff1661ffff16815260200190815260200160002060009054906101000a900473ffffffffffffffffffffffffffffffffffffffff1673ffffffffffffffffffffffffffffffffffffffff1673ffffffffffffffffffffffffffffffffffffffff1681526020019081526020016000206006018390806001815401808255809150506001900390600052602060002090601091828204019190066002029091909190916101000a81548161ffff021916908361ffff16021790555060026000600360008761ffff1661ffff16815260200190815260200160002060009054906101000a900473ffffffffffffffffffffffffffffffffffffffff1673ffffffffffffffffffffffffffffffffffffffff1673ffffffffffffffffffffffffffffffffffffffff1681526020019081526020016000206007018290806001815401808255809150506001900390600052602060002090601091828204019190066002029091909190916101000a81548161ffff021916908361ffff16021790555050505050565b60405180610160016040528060608152602001600061ffff168152602001600060ff1681526020016060815260200160608152602001600015158152602001600061ffff168152602001600073ffffffffffffffffffffffffffffffffffffffff1681526020016060815260200160608152602001606081525090565b828054612e6c90613e41565b90600052602060002090601f016020900481019282612e8e5760008555612ed5565b82601f10612ea757805160ff1916838001178555612ed5565b82800160010185558215612ed5579182015b82811115612ed4578251825591602001919060010190612eb9565b5b509050612ee291906130c6565b5090565b82805482825590600052602060002090601f01602090048101928215612f7b5791602002820160005b83821115612f4c57835183826101000a81548160ff0219169083151502179055509260200192600101602081600001049283019260010302612f0f565b8015612f795782816101000a81549060ff0219169055600101602081600001049283019260010302612f4c565b505b509050612f8891906130c6565b5090565b82805482825590600052602060002090600f016010900481019282156130255791602002820160005b83821115612ff557835183826101000a81548161ffff021916908361ffff1602179055509260200192600201602081600101049283019260010302612fb5565b80156130235782816101000a81549061ffff0219169055600201602081600101049283019260010302612ff5565b505b50905061303291906130c6565b5090565b50805461304290613e41565b6000825580601f106130545750613073565b601f01602090049060005260206000209081019061307291906130c6565b5b50565b50805460008255601f01602090049060005260206000209081019061309b91906130c6565b50565b50805460008255600f0160109004906000526020600020908101906130c391906130c6565b50565b5b808211156130df5760008160009055506001016130c7565b5090565b60006130f66130f184613c2d565b613bfc565b90508281526020810184848401111561310e57600080fd5b613119848285613dff565b509392505050565b60008135905061313081613f3c565b92915050565b600082601f83011261314757600080fd5b81356131578482602086016130e3565b91505092915050565b60008135905061316f81613f53565b92915050565b60008135905061318481613f6a565b92915050565b60008135905061319981613f81565b92915050565b6000602082840312156131b157600080fd5b60006131bf84828501613121565b91505092915050565b600080604083850312156131db57600080fd5b60006131e985828601613121565b92505060206131fa85828601613175565b9150509250929050565b60006020828403121561321657600080fd5b600082013567ffffffffffffffff81111561323057600080fd5b61323c84828501613136565b91505092915050565b600080600080600060a0868803121561325d57600080fd5b600086013567ffffffffffffffff81111561327757600080fd5b61328388828901613136565b95505060206132948882890161318a565b945050604086013567ffffffffffffffff8111156132b157600080fd5b6132bd88828901613136565b935050606086013567ffffffffffffffff8111156132da57600080fd5b6132e688828901613136565b92505060806132f788828901613160565b9150509295509295909350565b60006020828403121561331657600080fd5b600061332484828501613160565b91505092915050565b60008060006060848603121561334257600080fd5b600061335086828701613160565b935050602061336186828701613160565b925050604061337286828701613160565b9150509250925092565b60006133888383613601565b60208301905092915050565b60006133a0838361361f565b905092915050565b60006133b4838361380e565b60808301905092915050565b60006133cc8383613975565b60208301905092915050565b6133e181613d9c565b82525050565b6133f081613d9c565b82525050565b6133ff81613d8a565b82525050565b61340e81613d8a565b82525050565b600061341f82613c9d565b6134298185613d08565b935061343483613c5d565b8060005b8381101561346557815161344c888261337c565b975061345783613cd4565b925050600181019050613438565b5085935050505092915050565b600061347d82613ca8565b6134878185613d19565b93508360208202850161349985613c6d565b8060005b858110156134d557848403895281516134b68582613394565b94506134c183613ce1565b925060208a0199505060018101905061349d565b50829750879550505050505092915050565b60006134f282613cb3565b6134fc8185613d2a565b935061350783613c7d565b8060005b8381101561353857815161351f88826133a8565b975061352a83613cee565b92505060018101905061350b565b5085935050505092915050565b600061355082613cbe565b61355a8185613d3b565b935061356583613c8d565b8060005b8381101561359657815161357d88826133c0565b975061358883613cfb565b925050600181019050613569565b5085935050505092915050565b60006135ae82613cbe565b6135b88185613d4c565b93506135c383613c8d565b8060005b838110156135f45781516135db88826133c0565b97506135e683613cfb565b9250506001810190506135c7565b5085935050505092915050565b61360a81613dae565b82525050565b61361981613dae565b82525050565b600061362a82613cc9565b6136348185613d5d565b9350613644818560208601613e0e565b61364d81613f2b565b840191505092915050565b600061366382613cc9565b61366d8185613d6e565b935061367d818560208601613e0e565b61368681613f2b565b840191505092915050565b600061369c82613cc9565b6136a68185613d7f565b93506136b6818560208601613e0e565b80840191505092915050565b60006136cf602b83613d6e565b91507f4368617267696e672073746174696f6e2077697468207468697320494420697360008301527f206e6f74206163746976650000000000000000000000000000000000000000006020830152604082019050919050565b6000613735601883613d6e565b91507f54484953204953204e4f5420594f55522053544154494f4e00000000000000006000830152602082019050919050565b6000613775602b83613d6e565b91507f73746174696f6e206973206e6f74206672656520666f72207468652073656c6560008301527f6374656420706572696f640000000000000000000000000000000000000000006020830152604082019050919050565b60006137db601783613d6e565b91507f4164647265737320616c72656164792070726573656e740000000000000000006000830152602082019050919050565b6080820160008201516138246000850182613993565b5060208201516138376020850182613975565b50604082015161384a6040850182613975565b50606082015161385d60608501826133f6565b50505050565b6000610160830160008301518482036000860152613881828261361f565b91505060208301516138966020860182613975565b5060408301516138a960408601826139b1565b50606083015184820360608601526138c1828261361f565b915050608083015184820360808601526138db828261361f565b91505060a08301516138f060a0860182613601565b5060c083015161390360c0860182613975565b5060e083015161391660e08601826133d8565b506101008301518482036101008601526139308282613414565b91505061012083015184820361012086015261394c8282613545565b9150506101408301518482036101408601526139688282613545565b9150508091505092915050565b61397e81613dba565b82525050565b61398d81613dba565b82525050565b61399c81613de8565b82525050565b6139ab81613de8565b82525050565b6139ba81613df2565b82525050565b6139c981613df2565b82525050565b60006139db8284613691565b915081905092915050565b60006020820190506139fb6000830184613405565b92915050565b60006020820190508181036000830152613a1b8184613472565b905092915050565b60006020820190508181036000830152613a3d81846134e7565b905092915050565b60006020820190508181036000830152613a5f81846135a3565b905092915050565b6000610100820190508181036000830152613a82818b613658565b9050613a91602083018a613984565b613a9e60408301896139c0565b8181036060830152613ab08188613658565b90508181036080830152613ac48187613658565b9050613ad360a0830186613610565b613ae060c0830185613984565b613aed60e08301846133e7565b9998505050505050505050565b60006020820190508181036000830152613b13816136c2565b9050919050565b60006020820190508181036000830152613b3381613728565b9050919050565b60006020820190508181036000830152613b5381613768565b9050919050565b60006020820190508181036000830152613b73816137ce565b9050919050565b60006020820190508181036000830152613b948184613863565b905092915050565b6000602082019050613bb16000830184613984565b92915050565b6000608082019050613bcc60008301876139a2565b613bd96020830186613984565b613be66040830185613984565b613bf36060830184613405565b95945050505050565b6000604051905081810181811067ffffffffffffffff82111715613c2357613c22613efc565b5b8060405250919050565b600067ffffffffffffffff821115613c4857613c47613efc565b5b601f19601f8301169050602081019050919050565b6000819050602082019050919050565b6000819050602082019050919050565b6000819050602082019050919050565b6000819050602082019050919050565b600081519050919050565b600081519050919050565b600081519050919050565b600081519050919050565b600081519050919050565b6000602082019050919050565b6000602082019050919050565b6000602082019050919050565b6000602082019050919050565b600082825260208201905092915050565b600082825260208201905092915050565b600082825260208201905092915050565b600082825260208201905092915050565b600082825260208201905092915050565b600082825260208201905092915050565b600082825260208201905092915050565b600081905092915050565b6000613d9582613dc8565b9050919050565b6000613da782613dc8565b9050919050565b60008115159050919050565b600061ffff82169050919050565b600073ffffffffffffffffffffffffffffffffffffffff82169050919050565b6000819050919050565b600060ff82169050919050565b82818337600083830152505050565b60005b83811015613e2c578082015181840152602081019050613e11565b83811115613e3b576000848401525b50505050565b60006002820490506001821680613e5957607f821691505b60208210811415613e6d57613e6c613ecd565b5b50919050565b6000613e7e82613dba565b915061ffff821415613e9357613e92613e9e565b5b600182019050919050565b7f4e487b7100000000000000000000000000000000000000000000000000000000600052601160045260246000fd5b7f4e487b7100000000000000000000000000000000000000000000000000000000600052602260045260246000fd5b7f4e487b7100000000000000000000000000000000000000000000000000000000600052604160045260246000fd5b6000601f19601f8301169050919050565b613f4581613d8a565b8114613f5057600080fd5b50565b613f5c81613dba565b8114613f6757600080fd5b50565b613f7381613de8565b8114613f7e57600080fd5b50565b613f8a81613df2565b8114613f9557600080fd5b5056fea2646970667358221220a58fb18c042c07b8b6f1f079da4fee36491dbc680f6481c2bd6b405c28cf600064736f6c63430008000033",
  "linkReferences": {},
  "deployedLinkReferences": {}
}