{
  "_format": "hh-sol-artifact-1",
  "contractName": "EVSmartChargingDapp",
  "sourceName": "contracts/evsmartcharging.sol",
  "abi": [
    {
      "anonymous": false,
      "inputs": [
        {
          "indexed": true,
          "internalType": "uint256",
          "name": "stationId",
          "type": "uint256"
        }
      ],
      "name": "NewStation",
      "type": "event"
    },
    {
      "inputs": [
        {
          "internalType": "uint16",
          "name": "_stationId",
          "type": "uint16"
        },
        {
          "internalType": "uint256",
          "name": "inTime",
          "type": "uint256"
        },
        {
          "internalType": "uint256",
          "name": "outTime",
          "type": "uint256"
        }
      ],
      "name": "BookSlot",
      "outputs": [],
      "stateMutability": "payable",
      "type": "function"
    },
    {
      "inputs": [
        {
          "internalType": "uint8",
          "name": "_wattage",
          "type": "uint8"
        },
        {
          "internalType": "string",
          "name": "_description",
          "type": "string"
        },
        {
          "internalType": "string",
          "name": "_location",
          "type": "string"
        },
        {
          "internalType": "uint256",
          "name": "_price",
          "type": "uint256"
        }
      ],
      "name": "ListNewStation",
      "outputs": [],
      "stateMutability": "nonpayable",
      "type": "function"
    },
    {
      "inputs": [
        {
          "internalType": "uint16",
          "name": "",
          "type": "uint16"
        }
      ],
      "name": "addresses",
      "outputs": [
        {
          "internalType": "address",
          "name": "",
          "type": "address"
        }
      ],
      "stateMutability": "view",
      "type": "function"
    },
    {
      "inputs": [
        {
          "internalType": "address",
          "name": "",
          "type": "address"
        }
      ],
      "name": "addressesToInt",
      "outputs": [
        {
          "internalType": "uint16",
          "name": "",
          "type": "uint16"
        }
      ],
      "stateMutability": "view",
      "type": "function"
    },
    {
      "inputs": [
        {
          "internalType": "string",
          "name": "",
          "type": "string"
        }
      ],
      "name": "addressesToStation",
      "outputs": [
        {
          "internalType": "uint16",
          "name": "id",
          "type": "uint16"
        },
        {
          "internalType": "uint8",
          "name": "wattage",
          "type": "uint8"
        },
        {
          "internalType": "string",
          "name": "description",
          "type": "string"
        },
        {
          "internalType": "string",
          "name": "location",
          "type": "string"
        },
        {
          "internalType": "bool",
          "name": "isActive",
          "type": "bool"
        },
        {
          "internalType": "uint256",
          "name": "pricePerunit",
          "type": "uint256"
        },
        {
          "internalType": "address payable",
          "name": "owner",
          "type": "address"
        }
      ],
      "stateMutability": "view",
      "type": "function"
    },
    {
      "inputs": [
        {
          "internalType": "address",
          "name": "",
          "type": "address"
        },
        {
          "internalType": "uint256",
          "name": "",
          "type": "uint256"
        }
      ],
      "name": "bookings",
      "outputs": [
        {
          "internalType": "uint256",
          "name": "timestamp",
          "type": "uint256"
        },
        {
          "internalType": "uint256",
          "name": "inTime",
          "type": "uint256"
        },
        {
          "internalType": "uint256",
          "name": "outTime",
          "type": "uint256"
        },
        {
          "internalType": "address",
          "name": "user",
          "type": "address"
        }
      ],
      "stateMutability": "view",
      "type": "function"
    },
    {
      "inputs": [
        {
          "internalType": "uint16",
          "name": "_stationId",
          "type": "uint16"
        }
      ],
      "name": "deleteStation",
      "outputs": [],
      "stateMutability": "nonpayable",
      "type": "function"
    },
    {
      "inputs": [
        {
          "internalType": "uint16",
          "name": "_stationId",
          "type": "uint16"
        }
      ],
      "name": "getInTimings",
      "outputs": [
        {
          "internalType": "uint256[]",
          "name": "",
          "type": "uint256[]"
        }
      ],
      "stateMutability": "view",
      "type": "function"
    },
    {
      "inputs": [],
      "name": "getLocations",
      "outputs": [
        {
          "internalType": "string[]",
          "name": "",
          "type": "string[]"
        }
      ],
      "stateMutability": "view",
      "type": "function"
    },
    {
      "inputs": [
        {
          "internalType": "uint16",
          "name": "_stationId",
          "type": "uint16"
        }
      ],
      "name": "getOutTimings",
      "outputs": [
        {
          "internalType": "uint256[]",
          "name": "",
          "type": "uint256[]"
        }
      ],
      "stateMutability": "view",
      "type": "function"
    },
    {
      "inputs": [
        {
          "internalType": "uint16",
          "name": "_stationId",
          "type": "uint16"
        }
      ],
      "name": "setStationAsInactive",
      "outputs": [],
      "stateMutability": "nonpayable",
      "type": "function"
    },
    {
      "inputs": [],
      "name": "stationId",
      "outputs": [
        {
          "internalType": "uint16",
          "name": "",
          "type": "uint16"
        }
      ],
      "stateMutability": "view",
      "type": "function"
    },
    {
      "inputs": [
        {
          "internalType": "address",
          "name": "",
          "type": "address"
        }
      ],
      "name": "stations",
      "outputs": [
        {
          "internalType": "uint16",
          "name": "id",
          "type": "uint16"
        },
        {
          "internalType": "uint8",
          "name": "wattage",
          "type": "uint8"
        },
        {
          "internalType": "string",
          "name": "description",
          "type": "string"
        },
        {
          "internalType": "string",
          "name": "location",
          "type": "string"
        },
        {
          "internalType": "bool",
          "name": "isActive",
          "type": "bool"
        },
        {
          "internalType": "uint256",
          "name": "pricePerunit",
          "type": "uint256"
        },
        {
          "internalType": "address payable",
          "name": "owner",
          "type": "address"
        }
      ],
      "stateMutability": "view",
      "type": "function"
    }
  ],
  "bytecode": "0x608060405260008060006101000a81548161ffff021916908361ffff16021790555034801561002d57600080fd5b50612e3b8061003d6000396000f3fe6080604052600436106100c25760003560e01c806362ebe0c21161007f578063ab63616f11610059578063ab63616f1461029a578063c7fb4f12146102c5578063fa45f7ae14610308578063ffae7b7214610345576100c2565b806362ebe0c2146101f457806380b09e651461021d5780639c794e2a1461025a576100c2565b806303bd800d146100c75780632130f524146100e35780632d376a2b1461010c578063500c43371461014f57806356b27a381461017a5780636014cc7b146101b7575b600080fd5b6100e160048036038101906100dc9190611f77565b61036e565b005b3480156100ef57600080fd5b5061010a60048036038101906101059190611fca565b61084e565b005b34801561011857600080fd5b50610133600480360381019061012e919061213d565b6109f2565b604051610146979695949392919061229b565b60405180910390f35b34801561015b57600080fd5b50610164610ba2565b6040516101719190612318565b60405180910390f35b34801561018657600080fd5b506101a1600480360381019061019c9190611fca565b610bb4565b6040516101ae91906123f1565b60405180910390f35b3480156101c357600080fd5b506101de60048036038101906101d99190611fca565b610c89565b6040516101eb91906123f1565b60405180910390f35b34801561020057600080fd5b5061021b6004803603810190610216919061243f565b610d5e565b005b34801561022957600080fd5b50610244600480360381019061023f919061251c565b611395565b6040516102519190612318565b60405180910390f35b34801561026657600080fd5b50610281600480360381019061027c9190612549565b6113b6565b6040516102919493929190612598565b60405180910390f35b3480156102a657600080fd5b506102af611423565b6040516102bc91906126e9565b60405180910390f35b3480156102d157600080fd5b506102ec60048036038101906102e7919061251c565b6114fc565b6040516102ff979695949392919061229b565b60405180910390f35b34801561031457600080fd5b5061032f600480360381019061032a9190611fca565b611696565b60405161033c919061270b565b60405180910390f35b34801561035157600080fd5b5061036c60048036038101906103679190611fca565b6116c9565b005b600060026000600360008761ffff1661ffff16815260200190815260200160002060009054906101000a900473ffffffffffffffffffffffffffffffffffffffff1673ffffffffffffffffffffffffffffffffffffffff1673ffffffffffffffffffffffffffffffffffffffff168152602001908152602001600020604051806101400160405290816000820160009054906101000a900461ffff1661ffff1661ffff1681526020016000820160029054906101000a900460ff1660ff1660ff16815260200160018201805461044390612755565b80601f016020809104026020016040519081016040528092919081815260200182805461046f90612755565b80156104bc5780601f10610491576101008083540402835291602001916104bc565b820191906000526020600020905b81548152906001019060200180831161049f57829003601f168201915b505050505081526020016002820180546104d590612755565b80601f016020809104026020016040519081016040528092919081815260200182805461050190612755565b801561054e5780601f106105235761010080835404028352916020019161054e565b820191906000526020600020905b81548152906001019060200180831161053157829003601f168201915b505050505081526020016003820160009054906101000a900460ff16151515158152602001600482015481526020016005820160009054906101000a900473ffffffffffffffffffffffffffffffffffffffff1673ffffffffffffffffffffffffffffffffffffffff1673ffffffffffffffffffffffffffffffffffffffff1681526020016006820180548060200260200160405190810160405280929190818152602001828054801561064657602002820191906000526020600020906000905b82829054906101000a900460ff161515815260200190600101906020826000010492830192600103820291508084116106105790505b505050505081526020016007820180548060200260200160405190810160405280929190818152602001828054801561069e57602002820191906000526020600020905b81548152602001906001019080831161068a575b50505050508152602001600882018054806020026020016040519081016040528092919081815260200182805480156106f657602002820191906000526020600020905b8154815260200190600101908083116106e2575b505050505081525050905060011515816080015115151461074c576040517f08c379a0000000000000000000000000000000000000000000000000000000008152600401610743906127f8565b60405180910390fd5b60008390505b828110156107d257600115158260e00151828151811061077557610774612818565b5b60200260200101511515036107bf576040517f08c379a00000000000000000000000000000000000000000000000000000000081526004016107b6906128b9565b60405180910390fd5b80806107ca90612908565b915050610752565b5082826107df9190612950565b8160a001516107ee9190612984565b341461082f576040517f08c379a000000000000000000000000000000000000000000000000000000000815260040161082690612a12565b60405180910390fd5b61083d8160c001513461199f565b6108488484846119ea565b50505050565b3373ffffffffffffffffffffffffffffffffffffffff1660026000600360008561ffff1661ffff16815260200190815260200160002060009054906101000a900473ffffffffffffffffffffffffffffffffffffffff1673ffffffffffffffffffffffffffffffffffffffff1673ffffffffffffffffffffffffffffffffffffffff16815260200190815260200160002060050160009054906101000a900473ffffffffffffffffffffffffffffffffffffffff1673ffffffffffffffffffffffffffffffffffffffff1614610959576040517f08c379a000000000000000000000000000000000000000000000000000000000815260040161095090612a7e565b60405180910390fd5b600060026000600360008561ffff1661ffff16815260200190815260200160002060009054906101000a900473ffffffffffffffffffffffffffffffffffffffff1673ffffffffffffffffffffffffffffffffffffffff1673ffffffffffffffffffffffffffffffffffffffff16815260200190815260200160002060030160006101000a81548160ff02191690831515021790555050565b6005818051602081018201805184825260208301602085012081835280955050505050506000915090508060000160009054906101000a900461ffff16908060000160029054906101000a900460ff1690806001018054610a5290612755565b80601f0160208091040260200160405190810160405280929190818152602001828054610a7e90612755565b8015610acb5780601f10610aa057610100808354040283529160200191610acb565b820191906000526020600020905b815481529060010190602001808311610aae57829003601f168201915b505050505090806002018054610ae090612755565b80601f0160208091040260200160405190810160405280929190818152602001828054610b0c90612755565b8015610b595780601f10610b2e57610100808354040283529160200191610b59565b820191906000526020600020905b815481529060010190602001808311610b3c57829003601f168201915b5050505050908060030160009054906101000a900460ff16908060040154908060050160009054906101000a900473ffffffffffffffffffffffffffffffffffffffff16905087565b60008054906101000a900461ffff1681565b606060026000600360008561ffff1661ffff16815260200190815260200160002060009054906101000a900473ffffffffffffffffffffffffffffffffffffffff1673ffffffffffffffffffffffffffffffffffffffff1673ffffffffffffffffffffffffffffffffffffffff168152602001908152602001600020600801805480602002602001604051908101604052809291908181526020018280548015610c7d57602002820191906000526020600020905b815481526020019060010190808311610c69575b50505050509050919050565b606060026000600360008561ffff1661ffff16815260200190815260200160002060009054906101000a900473ffffffffffffffffffffffffffffffffffffffff1673ffffffffffffffffffffffffffffffffffffffff1673ffffffffffffffffffffffffffffffffffffffff168152602001908152602001600020600701805480602002602001604051908101604052809291908181526020018280548015610d5257602002820191906000526020600020905b815481526020019060010190808311610d3e575b50505050509050919050565b600060405180610140016040528060008054906101000a900461ffff1661ffff1681526020018660ff1681526020018581526020018481526020016001151581526020018381526020013373ffffffffffffffffffffffffffffffffffffffff1681526020016105a067ffffffffffffffff811115610de057610ddf612012565b5b604051908082528060200260200182016040528015610e0e5781602001602082028036833780820191505090505b508152602001600067ffffffffffffffff811115610e2f57610e2e612012565b5b604051908082528060200260200182016040528015610e5d5781602001602082028036833780820191505090505b508152602001600067ffffffffffffffff811115610e7e57610e7d612012565b5b604051908082528060200260200182016040528015610eac5781602001602082028036833780820191505090505b5081525090506000600460003373ffffffffffffffffffffffffffffffffffffffff1673ffffffffffffffffffffffffffffffffffffffff16815260200190815260200160002060009054906101000a900461ffff1661ffff1614610f46576040517f08c379a0000000000000000000000000000000000000000000000000000000008152600401610f3d90612aea565b60405180910390fd5b80600260003373ffffffffffffffffffffffffffffffffffffffff1673ffffffffffffffffffffffffffffffffffffffff16815260200190815260200160002060008201518160000160006101000a81548161ffff021916908361ffff16021790555060208201518160000160026101000a81548160ff021916908360ff1602179055506040820151816001019081610fdf9190612cb6565b506060820151816002019081610ff59190612cb6565b5060808201518160030160006101000a81548160ff02191690831515021790555060a0820151816004015560c08201518160050160006101000a81548173ffffffffffffffffffffffffffffffffffffffff021916908373ffffffffffffffffffffffffffffffffffffffff16021790555060e0820151816006019080519060200190611083929190611d5a565b506101008201518160070190805190602001906110a1929190611e00565b506101208201518160080190805190602001906110bf929190611e00565b5090505033600360008060009054906101000a900461ffff1661ffff1661ffff16815260200190815260200160002060006101000a81548173ffffffffffffffffffffffffffffffffffffffff021916908373ffffffffffffffffffffffffffffffffffffffff16021790555060008054906101000a900461ffff16600460003373ffffffffffffffffffffffffffffffffffffffff1673ffffffffffffffffffffffffffffffffffffffff16815260200190815260200160002060006101000a81548161ffff021916908361ffff160217905550806005846040516111a59190612dc4565b908152602001604051809103902060008201518160000160006101000a81548161ffff021916908361ffff16021790555060208201518160000160026101000a81548160ff021916908360ff160217905550604082015181600101908161120c9190612cb6565b5060608201518160020190816112229190612cb6565b5060808201518160030160006101000a81548160ff02191690831515021790555060a0820151816004015560c08201518160050160006101000a81548173ffffffffffffffffffffffffffffffffffffffff021916908373ffffffffffffffffffffffffffffffffffffffff16021790555060e08201518160060190805190602001906112b0929190611d5a565b506101008201518160070190805190602001906112ce929190611e00565b506101208201518160080190805190602001906112ec929190611e00565b509050506001839080600181540180825580915050600190039060005260206000200160009091909190915090816113249190612cb6565b5060008081819054906101000a900461ffff168092919061134490612ddb565b91906101000a81548161ffff021916908361ffff16021790555061ffff167f8ef6e725b5e0def9cb299710591eaf567460d01fe78dbb404bec6b106064c00b60405160405180910390a25050505050565b60046020528060005260406000206000915054906101000a900461ffff1681565b600660205281600052604060002081815481106113d257600080fd5b9060005260206000209060040201600091509150508060000154908060010154908060020154908060030160009054906101000a900473ffffffffffffffffffffffffffffffffffffffff16905084565b60606001805480602002602001604051908101604052809291908181526020016000905b828210156114f357838290600052602060002001805461146690612755565b80601f016020809104026020016040519081016040528092919081815260200182805461149290612755565b80156114df5780601f106114b4576101008083540402835291602001916114df565b820191906000526020600020905b8154815290600101906020018083116114c257829003601f168201915b505050505081526020019060010190611447565b50505050905090565b60026020528060005260406000206000915090508060000160009054906101000a900461ffff16908060000160029054906101000a900460ff169080600101805461154690612755565b80601f016020809104026020016040519081016040528092919081815260200182805461157290612755565b80156115bf5780601f10611594576101008083540402835291602001916115bf565b820191906000526020600020905b8154815290600101906020018083116115a257829003601f168201915b5050505050908060020180546115d490612755565b80601f016020809104026020016040519081016040528092919081815260200182805461160090612755565b801561164d5780601f106116225761010080835404028352916020019161164d565b820191906000526020600020905b81548152906001019060200180831161163057829003601f168201915b5050505050908060030160009054906101000a900460ff16908060040154908060050160009054906101000a900473ffffffffffffffffffffffffffffffffffffffff16905087565b60036020528060005260406000206000915054906101000a900473ffffffffffffffffffffffffffffffffffffffff1681565b6000151560026000600360008561ffff1661ffff16815260200190815260200160002060009054906101000a900473ffffffffffffffffffffffffffffffffffffffff1673ffffffffffffffffffffffffffffffffffffffff1673ffffffffffffffffffffffffffffffffffffffff16815260200190815260200160002060030160009054906101000a900460ff1615151461179a576040517f08c379a0000000000000000000000000000000000000000000000000000000008152600401611791906127f8565b60405180910390fd5b60026000600360008461ffff1661ffff16815260200190815260200160002060009054906101000a900473ffffffffffffffffffffffffffffffffffffffff1673ffffffffffffffffffffffffffffffffffffffff1673ffffffffffffffffffffffffffffffffffffffff168152602001908152602001600020600080820160006101000a81549061ffff02191690556000820160026101000a81549060ff021916905560018201600061184e9190611e4d565b60028201600061185e9190611e4d565b6003820160006101000a81549060ff021916905560048201600090556005820160006101000a81549073ffffffffffffffffffffffffffffffffffffffff02191690556006820160006118b19190611e8d565b6007820160006118c19190611eb5565b6008820160006118d19190611eb5565b505060046000600360008461ffff1661ffff16815260200190815260200160002060009054906101000a900473ffffffffffffffffffffffffffffffffffffffff1673ffffffffffffffffffffffffffffffffffffffff1673ffffffffffffffffffffffffffffffffffffffff16815260200190815260200160002060006101000a81549061ffff0219169055600360008261ffff1661ffff16815260200190815260200160002060006101000a81549073ffffffffffffffffffffffffffffffffffffffff021916905550565b8173ffffffffffffffffffffffffffffffffffffffff166108fc829081150290604051600060405180830381858888f193505050501580156119e5573d6000803e3d6000fd5b505050565b600060405180608001604052804281526020018481526020018381526020013373ffffffffffffffffffffffffffffffffffffffff16815250905060066000600360008761ffff1661ffff16815260200190815260200160002060009054906101000a900473ffffffffffffffffffffffffffffffffffffffff1673ffffffffffffffffffffffffffffffffffffffff1673ffffffffffffffffffffffffffffffffffffffff16815260200190815260200160002081908060018154018082558091505060019003906000526020600020906004020160009091909190915060008201518160000155602082015181600101556040820151816002015560608201518160030160006101000a81548173ffffffffffffffffffffffffffffffffffffffff021916908373ffffffffffffffffffffffffffffffffffffffff160217905550505060008390505b82811015611c0b57600160026000600360008961ffff1661ffff16815260200190815260200160002060009054906101000a900473ffffffffffffffffffffffffffffffffffffffff1673ffffffffffffffffffffffffffffffffffffffff1673ffffffffffffffffffffffffffffffffffffffff1681526020019081526020016000206006018281548110611bcf57611bce612818565b5b90600052602060002090602091828204019190066101000a81548160ff0219169083151502179055508080611c0390612908565b915050611b36565b5060026000600360008761ffff1661ffff16815260200190815260200160002060009054906101000a900473ffffffffffffffffffffffffffffffffffffffff1673ffffffffffffffffffffffffffffffffffffffff1673ffffffffffffffffffffffffffffffffffffffff16815260200190815260200160002060070183908060018154018082558091505060019003906000526020600020016000909190919091505560026000600360008761ffff1661ffff16815260200190815260200160002060009054906101000a900473ffffffffffffffffffffffffffffffffffffffff1673ffffffffffffffffffffffffffffffffffffffff1673ffffffffffffffffffffffffffffffffffffffff16815260200190815260200160002060080182908060018154018082558091505060019003906000526020600020016000909190919091505550505050565b82805482825590600052602060002090601f01602090048101928215611def5791602002820160005b83821115611dc057835183826101000a81548160ff0219169083151502179055509260200192600101602081600001049283019260010302611d83565b8015611ded5782816101000a81549060ff0219169055600101602081600001049283019260010302611dc0565b505b509050611dfc9190611ed6565b5090565b828054828255906000526020600020908101928215611e3c579160200282015b82811115611e3b578251825591602001919060010190611e20565b5b509050611e499190611ed6565b5090565b508054611e5990612755565b6000825580601f10611e6b5750611e8a565b601f016020900490600052602060002090810190611e899190611ed6565b5b50565b50805460008255601f016020900490600052602060002090810190611eb29190611ed6565b50565b5080546000825590600052602060002090810190611ed39190611ed6565b50565b5b80821115611eef576000816000905550600101611ed7565b5090565b6000604051905090565b600080fd5b600080fd5b600061ffff82169050919050565b611f1e81611f07565b8114611f2957600080fd5b50565b600081359050611f3b81611f15565b92915050565b6000819050919050565b611f5481611f41565b8114611f5f57600080fd5b50565b600081359050611f7181611f4b565b92915050565b600080600060608486031215611f9057611f8f611efd565b5b6000611f9e86828701611f2c565b9350506020611faf86828701611f62565b9250506040611fc086828701611f62565b9150509250925092565b600060208284031215611fe057611fdf611efd565b5b6000611fee84828501611f2c565b91505092915050565b600080fd5b600080fd5b6000601f19601f8301169050919050565b7f4e487b7100000000000000000000000000000000000000000000000000000000600052604160045260246000fd5b61204a82612001565b810181811067ffffffffffffffff8211171561206957612068612012565b5b80604052505050565b600061207c611ef3565b90506120888282612041565b919050565b600067ffffffffffffffff8211156120a8576120a7612012565b5b6120b182612001565b9050602081019050919050565b82818337600083830152505050565b60006120e06120db8461208d565b612072565b9050828152602081018484840111156120fc576120fb611ffc565b5b6121078482856120be565b509392505050565b600082601f83011261212457612123611ff7565b5b81356121348482602086016120cd565b91505092915050565b60006020828403121561215357612152611efd565b5b600082013567ffffffffffffffff81111561217157612170611f02565b5b61217d8482850161210f565b91505092915050565b61218f81611f07565b82525050565b600060ff82169050919050565b6121ab81612195565b82525050565b600081519050919050565b600082825260208201905092915050565b60005b838110156121eb5780820151818401526020810190506121d0565b60008484015250505050565b6000612202826121b1565b61220c81856121bc565b935061221c8185602086016121cd565b61222581612001565b840191505092915050565b60008115159050919050565b61224581612230565b82525050565b61225481611f41565b82525050565b600073ffffffffffffffffffffffffffffffffffffffff82169050919050565b60006122858261225a565b9050919050565b6122958161227a565b82525050565b600060e0820190506122b0600083018a612186565b6122bd60208301896121a2565b81810360408301526122cf81886121f7565b905081810360608301526122e381876121f7565b90506122f2608083018661223c565b6122ff60a083018561224b565b61230c60c083018461228c565b98975050505050505050565b600060208201905061232d6000830184612186565b92915050565b600081519050919050565b600082825260208201905092915050565b6000819050602082019050919050565b61236881611f41565b82525050565b600061237a838361235f565b60208301905092915050565b6000602082019050919050565b600061239e82612333565b6123a8818561233e565b93506123b38361234f565b8060005b838110156123e45781516123cb888261236e565b97506123d683612386565b9250506001810190506123b7565b5085935050505092915050565b6000602082019050818103600083015261240b8184612393565b905092915050565b61241c81612195565b811461242757600080fd5b50565b60008135905061243981612413565b92915050565b6000806000806080858703121561245957612458611efd565b5b60006124678782880161242a565b945050602085013567ffffffffffffffff81111561248857612487611f02565b5b6124948782880161210f565b935050604085013567ffffffffffffffff8111156124b5576124b4611f02565b5b6124c18782880161210f565b92505060606124d287828801611f62565b91505092959194509250565b60006124e98261225a565b9050919050565b6124f9816124de565b811461250457600080fd5b50565b600081359050612516816124f0565b92915050565b60006020828403121561253257612531611efd565b5b600061254084828501612507565b91505092915050565b600080604083850312156125605761255f611efd565b5b600061256e85828601612507565b925050602061257f85828601611f62565b9150509250929050565b612592816124de565b82525050565b60006080820190506125ad600083018761224b565b6125ba602083018661224b565b6125c7604083018561224b565b6125d46060830184612589565b95945050505050565b600081519050919050565b600082825260208201905092915050565b6000819050602082019050919050565b600082825260208201905092915050565b6000612625826121b1565b61262f8185612609565b935061263f8185602086016121cd565b61264881612001565b840191505092915050565b600061265f838361261a565b905092915050565b6000602082019050919050565b600061267f826125dd565b61268981856125e8565b93508360208202850161269b856125f9565b8060005b858110156126d757848403895281516126b88582612653565b94506126c383612667565b925060208a0199505060018101905061269f565b50829750879550505050505092915050565b600060208201905081810360008301526127038184612674565b905092915050565b60006020820190506127206000830184612589565b92915050565b7f4e487b7100000000000000000000000000000000000000000000000000000000600052602260045260246000fd5b6000600282049050600182168061276d57607f821691505b6020821081036127805761277f612726565b5b50919050565b7f4368617267696e672073746174696f6e2077697468207468697320494420697360008201527f206e6f7420616374697665000000000000000000000000000000000000000000602082015250565b60006127e2602b836121bc565b91506127ed82612786565b604082019050919050565b60006020820190508181036000830152612811816127d5565b9050919050565b7f4e487b7100000000000000000000000000000000000000000000000000000000600052603260045260246000fd5b7f73746174696f6e206973206e6f74206672656520666f72207468652073656c6560008201527f6374656420706572696f64000000000000000000000000000000000000000000602082015250565b60006128a3602b836121bc565b91506128ae82612847565b604082019050919050565b600060208201905081810360008301526128d281612896565b9050919050565b7f4e487b7100000000000000000000000000000000000000000000000000000000600052601160045260246000fd5b600061291382611f41565b91507fffffffffffffffffffffffffffffffffffffffffffffffffffffffffffffffff8203612945576129446128d9565b5b600182019050919050565b600061295b82611f41565b915061296683611f41565b925082820390508181111561297e5761297d6128d9565b5b92915050565b600061298f82611f41565b915061299a83611f41565b92508282026129a881611f41565b915082820484148315176129bf576129be6128d9565b5b5092915050565b7f53656e7420696e73756666696369656e742066756e6473000000000000000000600082015250565b60006129fc6017836121bc565b9150612a07826129c6565b602082019050919050565b60006020820190508181036000830152612a2b816129ef565b9050919050565b7f54484953204953204e4f5420594f55522053544154494f4e0000000000000000600082015250565b6000612a686018836121bc565b9150612a7382612a32565b602082019050919050565b60006020820190508181036000830152612a9781612a5b565b9050919050565b7f4164647265737320616c72656164792070726573656e74000000000000000000600082015250565b6000612ad46017836121bc565b9150612adf82612a9e565b602082019050919050565b60006020820190508181036000830152612b0381612ac7565b9050919050565b60008190508160005260206000209050919050565b60006020601f8301049050919050565b600082821b905092915050565b600060088302612b6c7fffffffffffffffffffffffffffffffffffffffffffffffffffffffffffffffff82612b2f565b612b768683612b2f565b95508019841693508086168417925050509392505050565b6000819050919050565b6000612bb3612bae612ba984611f41565b612b8e565b611f41565b9050919050565b6000819050919050565b612bcd83612b98565b612be1612bd982612bba565b848454612b3c565b825550505050565b600090565b612bf6612be9565b612c01818484612bc4565b505050565b5b81811015612c2557612c1a600082612bee565b600181019050612c07565b5050565b601f821115612c6a57612c3b81612b0a565b612c4484612b1f565b81016020851015612c53578190505b612c67612c5f85612b1f565b830182612c06565b50505b505050565b600082821c905092915050565b6000612c8d60001984600802612c6f565b1980831691505092915050565b6000612ca68383612c7c565b9150826002028217905092915050565b612cbf826121b1565b67ffffffffffffffff811115612cd857612cd7612012565b5b612ce28254612755565b612ced828285612c29565b600060209050601f831160018114612d205760008415612d0e578287015190505b612d188582612c9a565b865550612d80565b601f198416612d2e86612b0a565b60005b82811015612d5657848901518255600182019150602085019450602081019050612d31565b86831015612d735784890151612d6f601f891682612c7c565b8355505b6001600288020188555050505b505050505050565b600081905092915050565b6000612d9e826121b1565b612da88185612d88565b9350612db88185602086016121cd565b80840191505092915050565b6000612dd08284612d93565b915081905092915050565b6000612de682611f07565b915061ffff8203612dfa57612df96128d9565b5b60018201905091905056fea2646970667358221220671eecd24a3f286002a76337fb4274f4b60d71a0281374a93e44c0e606a1f66364736f6c63430008120033",
  "linkReferences": {},
  "deployedLinkReferences": {}
}